{
  "_format": "hh-sol-artifact-1",
  "contractName": "MockOracleRelayer",
  "sourceName": "contracts/mocks/MockOracleRelayer.sol",
  "abi": [
    {
      "anonymous": false,
      "inputs": [
        {
          "indexed": true,
          "internalType": "bytes32",
          "name": "queryId",
          "type": "bytes32"
        },
        {
          "indexed": false,
          "internalType": "bytes",
          "name": "data",
          "type": "bytes"
        }
      ],
      "name": "ProofRelayed",
      "type": "event"
    },
    {
      "inputs": [
        {
          "internalType": "bytes32",
          "name": "queryId",
          "type": "bytes32"
        }
      ],
      "name": "getQueryResult",
      "outputs": [
        {
          "internalType": "bytes",
          "name": "",
          "type": "bytes"
        }
      ],
      "stateMutability": "view",
      "type": "function"
    },
    {
      "inputs": [
        {
          "internalType": "bytes32",
          "name": "",
          "type": "bytes32"
        }
      ],
      "name": "results",
      "outputs": [
        {
          "internalType": "bytes",
          "name": "",
          "type": "bytes"
        }
      ],
      "stateMutability": "view",
      "type": "function"
    },
    {
      "inputs": [
        {
          "internalType": "bytes32",
          "name": "queryId",
          "type": "bytes32"
        },
        {
          "internalType": "bytes",
          "name": "data",
          "type": "bytes"
        }
      ],
      "name": "seedProof",
      "outputs": [],
      "stateMutability": "nonpayable",
      "type": "function"
    }
  ],
  "bytecode": "0x608060405234801561001057600080fd5b506104df806100206000396000f3fe608060405234801561001057600080fd5b50600436106100415760003560e01c8063122bdecc1461004657806330d95cc21461005b5780634c6b25b114610084575b600080fd5b61005961005436600461023e565b610097565b005b61006e6100693660046102f9565b6100ec565b60405161007b9190610312565b60405180910390f35b61006e6100923660046102f9565b61018e565b60008281526020819052604090206100af82826103e9565b50817f1cb434ef8b155944af3d90b7a223adfd04549b53688bebd6d8eda04675318287826040516100e09190610312565b60405180910390a25050565b600081815260208190526040902080546060919061010990610360565b80601f016020809104026020016040519081016040528092919081815260200182805461013590610360565b80156101825780601f1061015757610100808354040283529160200191610182565b820191906000526020600020905b81548152906001019060200180831161016557829003601f168201915b50505050509050919050565b600060208190529081526040902080546101a790610360565b80601f01602080910402602001604051908101604052809291908181526020018280546101d390610360565b80156102205780601f106101f557610100808354040283529160200191610220565b820191906000526020600020905b81548152906001019060200180831161020357829003601f168201915b505050505081565b634e487b7160e01b600052604160045260246000fd5b6000806040838503121561025157600080fd5b82359150602083013567ffffffffffffffff8082111561027057600080fd5b818501915085601f83011261028457600080fd5b81358181111561029657610296610228565b604051601f8201601f19908116603f011681019083821181831017156102be576102be610228565b816040528281528860208487010111156102d757600080fd5b8260208601602083013760006020848301015280955050505050509250929050565b60006020828403121561030b57600080fd5b5035919050565b600060208083528351808285015260005b8181101561033f57858101830151858201604001528201610323565b506000604082860101526040601f19601f8301168501019250505092915050565b600181811c9082168061037457607f821691505b60208210810361039457634e487b7160e01b600052602260045260246000fd5b50919050565b601f8211156103e457600081815260208120601f850160051c810160208610156103c15750805b601f850160051c820191505b818110156103e0578281556001016103cd565b5050505b505050565b815167ffffffffffffffff81111561040357610403610228565b610417816104118454610360565b8461039a565b602080601f83116001811461044c57600084156104345750858301515b600019600386901b1c1916600185901b1785556103e0565b600085815260208120601f198616915b8281101561047b5788860151825594840194600190910190840161045c565b50858210156104995787850151600019600388901b60f8161c191681555b5050505050600190811b0190555056fea264697066735822122004509a23808de7521869322a657972e1ce00ccd5c83704e147cd1c9dc3e5ddcf64736f6c63430008140033",
  "linkReferences": {},
  "deployedLinkReferences": {}
}